S01400004578706572696D656E7420312E737265639E
S11300000C9486000C94A3000C94A3000C94A300FD
S11300100C94A3000C94A3000C94A3000C94A300D0
S11300200C94A3000C94A3000C94A3000C94A300C0
S11300300C94A3000C94A3000C94A3000C94A300B0
S11300400C94A3000C94A3000C94A3000C94A300A0
S11300500C94A3000C94A3000C94A3000C94A30090
S11300600C94A3000C94A3000C94A3000C94A30080
S11300700C94A3000C94A3000C94A3000C94A30070
S11300800C94A3000C94A3000C94A3000C94A30060
S11300900C94A3000C94A3000C94A3000C94A30050
S11300A00C94A3000C94A3000C94A3000C94A30040
S11300B00C94A3000C94A3000C94A3000C94A30030
S11300C00C94A3000C94A3000C94A30041646472E8
S11300D02E204F6666736574202020302020312046
S11300E020322020332020342020352020362020A8
S11300F0372020382020392020412020422020434E
S11301002020442020452020460A0D0011241FBE33
S1130110CFEFD8E0DEBFCDBF11E0A0E0B1E0E0E971
S1130120FAE002C005900D92A636B107D9F721E096
S1130130A6E6B1E001C01D92A83BB207E1F70E9418
S1130140A5000C9446050C940000CF93DF93CDB723
S1130150DEB7C255D1090FB6F894DEBF0FBECDBFCE
S113016040E855E260E070E088EC90E00E94A00175
S11301700E94E001AC0180E5898391E3E0E0F1E0D5
S1130180DE01129601900D929A95E1F7FE01F39625
S11301908FE1DF011D928A95E9F76981CE0102960C
S11301A00E94E30163968FAF639763966FAD639785
S11301B0AE014E5F5F4F88EC90E00E9409026981B6
S11301C070E0AE014E5F5F4F88EC90E00E947301D7
S11301D065E588EC90E00E94D30188EC90E00E94F1
S11301E0DA01682F88EC90E00E94D301F1CFAF923E
S11301F0BF92DF92EF92FF920F931F93CF93DF93FF
S11302008C017B015A010E94E001D82ED92FEA0CFF
S1130210FB1CFF92EF9280E591E09F938F93DF9315
S1130220DF920E945C024D2D5D2F60E0C8010E94A8
S11302300902BF92AF9284E591E09F938F93DF937D
S1130240DF920E945C024D2D5D2F60E0C8010E9488
S113025009028DB79EB70C960FB6F8949EBF0FBED9
S11302608DBFC0E01BC0F701EC0FF11D80811F9210
S11302708F938EE591E09F938F93DF93DF920E949B
S11302805C024D2D5D2F60E0C8010E940902CF5F22
S11302900F900F900F900F900F900F90C03118F3A4
S11302A0C0E00DC0F701EC0FF11D608180EE860FF8
S11302B0803608F06EE2C8010E94D301CF5FC031DE
S11302C088F36DE0C8010E94D3016AE0C8010E946E
S11302D0D301DF91CF911F910F91FF90EF90DF90A9
S11302E0BF90AF900895CF92DF92EF92FF920F9359
S11302F01F93CF93DF938C016B017A010E94E0017D
S1130300EC01AC0160E08CEC90E00E94E301AE01F2
S113031060E0C8010E940902C0E0D0E0AE01B7016C
S1130320C8010E94F7006096CC15DD05B8F3DF9193
S1130330CF911F910F91FF90EF90DF90CF90089590
S1130340CF93DF93EC01DB01CA01880F991FAA1F29
S1130350BB1F880F991FAA1FBB1F9C01AD01220F51
S1130360331F441F551F220F331F441F551F60E0C6
S113037074E284EF90E00E943A02215031093093F4
S1130380B7012093B6013D832C8388818D7F8883B8
S113039086E08A8389818861898389818F7D8983C5
S11303A0DF91CF910895FC01908195FFFDCF668385
S11303B080E00895FC0190819923ECF786810895EB
S11303C086E691E00895CF93DF93DC0161111AC0B2
S11303D0262F30E0FD01E20FF31FE491EA01C20F82
S11303E0D31FE8836F5FE111F3CF0FC0292F30E0F3
S11303F0FD01E20FF31FE491EA01C20FD31FE8836A
S11304009F5F01C090E0961788F3862FDF91CF910C
S11304100895EF92FF920F931F93CF93DF937C0184
S1130420062FEA01611115C0688105C0C7010E9449
S1130430D301219668816111F9CF15C0FE01E10F46
S1130440F11D17FDFA956081C7010E94D3011F5F5A
S113045001C010E0202F30E0812F012E000C990BF9
S1130460821793075CF3DF91CF911F910F91FF9057
S1130470EF900895A1E21A2EAA1BBB1BFD010DC02B
S1130480AA1FBB1FEE1FFF1FA217B307E407F50740
S113049020F0A21BB30BE40BF50B661F771F881F1C
S11304A0991F1A9469F760957095809590959B01B2
S11304B0AC01BD01CF010895AEE0B0E0E2E6F2E0A8
S11304C00C941D050D891E8986E08C831A8309838B
S11304D08FEF9FE79E838D83AE01475E5F4F6F89E9
S11304E0788DCE0101960E947E02EF81F885E00F9F
S11304F0F11F10822E96E4E00C943905ABE0B0E0D5
S1130500E4E8F2E00C940F056C017B018A01FC0124
S113051017821682838181FFCCC1CE0101963C01F2
S1130520F6019381F70193FD859193FF81917F01FA
S1130530882309F4BAC1853239F493FD859193FF78
S113054081917F01853229F4B60190E00E947504FF
S1130550E7CF912C212C312CFFE1F315D8F08B320D
S113056079F038F4803279F08332A1F4232D2061BC
S11305701DC08D3261F0803369F4232D216016C0D3
S1130580832D8260382EE32DE4603E2E2AC0F32DA5
S1130590F8601DC037FC2DC020ED280F2A3040F034
S11305A08E32B9F436FC81C1232D2064322E19C059
S11305B036FE06C08AE0989E200D1124922E11C0AA
S11305C0EAE02E9E200D1124222EF32DF0623F2E00
S11305D008C08C3621F4832D8068382E02C08836FA
S11305E041F4F70193FD859193FF81917F0181117E
S11305F0B3CF982F9F7D9554933028F40C5F1F4FF1
S11306009FE399830DC0833631F0833771F08335CE
S113061009F059C021C0F801808189830E5F1F4F02
S113062088248394912C530113C02801F2E04F0EC7
S1130630511CF801A080B18036FE03C0692D70E022
S113064002C06FEF7FEFC5010E946A044C01820172
S1130650F32DFF773F2E16C0280122E0420E511CD5
S1130660F801A080B18036FE03C0692D70E002C09D
S11306706FEF7FEFC5010E945F044C01F32DF0681A
S11306803F2E820133FC1BC0822D90E08816990610
S1130690B0F4B60180E290E00E9475042A94F4CF8D
S11306A0F50137FC859137FE81915F01B60190E039
S11306B00E94750421102A9421E0821A9108811461
S11306C0910471F7E8C0843611F0893641F5F801D8
S11306D037FE07C060817181828193810C5F1F4F57
S11306E008C060817181072E000C880B990B0E5F86
S11306F01F4FF32DFF763F2E97FF09C090958095ED
S1130700709561957F4F8F4F9F4FF0683F2E2AE081
S113071030E0A3010E94B104882E861845C08537B5
S113072031F4232D2F7EB22E2AE030E025C0932D04
S1130730997FB92E8F36C1F018F4883579F0B5C099
S1130740803719F0883721F0B0C0E92FE061BE2E60
S1130750B4FE0DC0FB2DF460BF2E09C034FE0AC0E8
S1130760292F2660B22E06C028E030E005C020E123
S113077030E002C020E132E0F801B7FE07C060813A
S11307807181828193810C5F1F4F06C060817181EA
S113079080E090E00E5F1F4FA3010E94B104882EF9
S11307A08618FB2DFF773F2E36FE0DC0232D2E7F9E
S11307B0A22E891458F434FE0BC032FC09C0832DD8
S11307C08E7EA82E05C0B82CA32C03C0B82C01C063
S11307D0B92CA4FE0FC0FE01E80DF11D8081803309
S11307E021F49A2D997EA92E09C0A2FE06C0B394C5
S11307F0B39404C08A2D867809F0B394A3FC11C085
S1130800A0FE06C0B21488F4280C922C9B180EC0CB
S1130810B21460F4B60180E290E00E947504B394CF
S1130820F7CFB21418F42B1802C0982C212CA4FE74
S113083010C0B60180E390E00E947504A2FE17C0C8
S1130840A1FC03C088E790E002C088E590E0B6010F
S11308500CC08A2D867859F0A1FE02C08BE201C03B
S113086080E2A7FC8DE2B60190E00E947504891431
S113087038F4B60180E390E00E9475049A94F7CFAF
S11308808A94F301E80DF11D8081B60190E00E9485
S113089075048110F5CF222009F442CEB60180E21E
S11308A090E00E9475042A94F6CFF6018681978120
S11308B002C08FEF9FEF2B96E2E10C942B05FC0115
S11308C00590615070400110D8F7809590958E0F77
S11308D09F1F0895FC016150704001900110D8F7EA
S11308E0809590958E0F9F1F08950F931F93CF931C
S11308F0DF93FB01238121FD03C08FEF9FEF2CC009
S113090022FF16C04681578124813581421753073F
S113091044F4A081B1819D012F5F3F4F3183208337
S11309208C93268137812F5F3F4F3783268314C0F2
S11309308B01EC01FB010084F185E02D0995892BE5
S1130940E1F6D80116968D919C911797019617960A
S11309509C938E931697CE01DF91CF911F910F91A7
S11309600895FA01AA27283051F1203181F1E89441
S11309706F936E7F6E5F7F4F8F4F9F4FAF4FB1E08E
S11309803ED0B4E03CD0670F781F891F9A1FA11D89
S1130990680F791F8A1F911DA11D6A0F711D811D8A
S11309A0911DA11D20D009F468943F912AE0269F4F
S11309B011243019305D3193DEF6CF010895462FAE
S11309C04770405D4193B3E00FD0C9F7F6CF462F8F
S11309D04F70405D4A3318F0495D31FD40524193F8
S11309E002D0A9F7EACFB4E0A695979587957795B5
S11309F06795BA95C9F700976105710508959B013C
S1130A00AC010A2E06945795479537952795BA95C4
S1130A10C9F7620F731F841F951FA01D08952F929D
S1130A203F924F925F926F927F928F929F92AF927A
S1130A30BF92CF92DF92EF92FF920F931F93CF93C7
S1130A40DF93CDB7DEB7CA1BDB0B0FB6F894DEBF5E
S1130A500FBECDBF09942A88398848885F846E8484
S1130A607D848C849B84AA84B984C884DF80EE80CE
S1130A70FD800C811B81AA81B981CE0FD11D0FB6D7
S1130A80F894DEBF0FBECDBFED010895F894FFCFFB
S1130A904D69746368656C6C204D617274696E6530
S1130AA07A2C20536169204B6F6E6572752C20423D
S1130AB072656E7420526F626572736F6E200A0DD8
S1130AC00000000000000000000000000000000022
S1130AD00000000000000000000000000000000012
S1130AE025702000307825342E34582020002532FB
S1090AF02E325820000024
S9030000FC
