S01300004578706572696D656E74312E73726563BF
S11300000C9466000C9478000C9478000C9478009E
S11300100C9478000C9478000C9478000C9478007C
S11300200C9478000C9478000C9478000C9478006C
S11300300C9478000C9478000C9478000C9478005C
S11300400C9478000C9478000C9478000C9478004C
S11300500C9478000C9478000C9478000C9478003C
S11300600C9478000C9478000C9478000C9478002C
S11300700C9478000C9478000C9478000C9478001C
S11300800C9478000C9478000C9478000C9478000C
S11300900C9478000C9478000C9478000C947800FC
S11300A00C9478000C9478000C9478000C947800EC
S11300B00C9478000C9478000C9478000C947800DC
S11300C00C9478000C9478000C94780011241FBED2
S11300D0CFEFD8E0DEBFCDBF21E0A0E0B1E001C0AA
S11300E01D92A230B207E1F70E947A000C94F3004B
S11300F00C94000040E855E260E070E088EC90E089
S11301000E94910065E588EC90E00E94C40088ECB0
S113011090E00E94CB00682F88EC90E00E94C4001D
S1130120F1CFCF93DF93EC01DB01CA01880F991F54
S1130130AA1FBB1F880F991FAA1FBB1F9C01AD01DB
S1130140220F331F441F551F220F331F441F551FF7
S113015060E074E284EF90E00E94D1002150310904
S113016030930101209300013D832C8388818D7F8E
S1130170888386E08A8389818861898389818F7DE8
S11301808983DF91CF910895FC01908195FFFDCF84
S1130190668380E00895FC0190819923ECF78681C1
S11301A00895A1E21A2EAA1BBB1BFD010DC0AA1FB4
S11301B0BB1FEE1FFF1FA217B307E407F50720F0CC
S11301C0A21BB30BE40BF50B661F771F881F991F47
S11301D01A9469F760957095809590959B01AC0190
S10D01E0BD01CF010895F894FFCF8C
S9030000FC
